:100000000C94C7010C94E60A0C94BB0A0C94900A59
:100010000C94650A0C943A0A0C940F0A0C94E409A7
:100020000C94B9090C94110B0C94110B0C94110B3A
:100030000C94F8010C94F8010C94F8010C94F8015C
:100040000C94F8010C94F8010C94F8010C94F8014C
:100050000C94F8010C94F8010C94F8010C946F09BD
:100060000C94F8010C9439090C940F090C94F801C4
:100070000C94F8010C94F8010C94F8010C94F8011C
:100080000C94F8010C94F8010C94F8010C94F8010C
:100090000C94D9080C94AF080C94F8010C94F80156
:1000A0000C94F8010C94F8010C94F8010C94F801EC
:1000B0000C94F8010C94F8010C94F8010C94F801DC
:1000C0000C94F8010C94F8010C94F8010C94F801CC
:1000D0000C94F8010C94F8010C94F8010C94F801BC
:1000E0000C94F8010C948C030C943E070C94C906F4
:1000F0000C94B0100C94B9030C9421020C945F077B
:100100000C9461020C94C7030C94CA060C949203DD
:100110000C94B5030C94CC030C9484020C947002E0
:100120000C9426070C94C3030C94A7030C94BD07EE
:100130000C94AE040C948D0B0C949E030C949202C0
:100140000C942B020C949A030C9496030C94D103F8
:100150000C94A1030C94B1060C94D4020C94B1033A
:100160000C94AB030C9421030C94CD030C94BF03AB
:1001700000407A10F35A00A0724E18090010A5D45E
:10018000E80000E87648170000E40B54020000CABB
:100190009A3B000000E1F505000080969800000001
:1001A00040420F000000A086010000001027000060
:1001B0000000E803000000006400000000000A00E6
:1001C000000000000100000000002C76D888DC67E9
:1001D0004F0823DFC1DFAE59E1B1B796E5E3E45341
:1001E000C63AE651997696E8E6C28426EB898C9B5E
:1001F00062ED407C6FFCEFBC9C9F40F2BAA56FA5FE
:10020000F490055A2AF75C936B6CF9676DC11BFC7F
:10021000E0E40D47FEF520E6B500D0ED902E03009A
:10022000943577050080841E080000204E0A0000E7
:1002300000C80C333333330F986E12831141EF8DA6
:100240002114893BE65516CFFEE6DB18D1844B38E6
:100250001BF77C1D901DA4BBE424203284725E2217
:100260008100C9F124ECA1E53D2700002100240014
:1002700027002A002D003000330001010000040196
:1002800007010A0100002200250028002B002E0093
:100290003100340002010000050108010B010000DB
:1002A00020002300260029002C002F00320000012E
:1002B000000003010601090100000A0B02090C0DF0
:1002C0000E08070304010000000000000000000009
:1002D000000000000000000000000000000000001E
:1002E00000000000121110000000000000000000DB
:1002F00000000000000000000000000000000505F4
:100300000505070508080808020202020A0A08088B
:1003100004040404010101010101010103030303B9
:1003200003030303040707070C0C0C0C0C0C0C0C48
:100330000202020206060606060606060B0B0B0B59
:100340000B0B0B0B0102102020080810204010207E
:100350004080020102010804020101020408102089
:100360004080804020100804020180040201804087
:1003700020100804020108040201010204081020F0
:10038000408001020408102040808D0BB010112421
:100390001FBECFEFD1E2DEBFCDBF00E00CBF24E037
:1003A000AAE9B2E001C01D92A03EB207E1F712E057
:1003B000A0E0B2E0E4EBFEE200E00BBF02C0079079
:1003C0000D92AA39B107D9F711E0C6ECD1E000E0EF
:1003D00006C021970109802FFE010E941615C53C19
:1003E000D10780E00807A9F70E94850C0C944817F4
:1003F0000C940000FC01A089B18982E08C93A48553
:10040000B5851C92A685B7858FEC8C93108EA48938
:10041000B58986E08C93A289B3898C9180618C9395
:10042000A289B3898C9188608C93A289B3898C91BD
:1004300080688C930288F389E02D80818F7D808392
:10044000089580912B0390912C03019690932C0397
:1004500080932B030895AF92BF92CF92DF92EF92D9
:10046000FF920F931F93CF93DF936C017B018B015E
:10047000040F151FEB015E01AE18BF08C017D107AE
:1004800059F06991D601ED91FC910190F081E02D38
:10049000C6011995892B79F7C501DF91CF911F917D
:1004A0000F91FF90EF90DF90CF90BF90AF900895A5
:1004B000FC01448155816081718181E493E00C9459
:1004C0002B02FC01538D448D252F30E0842F90E0CA
:1004D000821B930B541710F0CF960895019708953F
:1004E000FC01918D828D981761F0A28DAE0FBF2F08
:1004F000B11D5D968C91928D9F5F9F73928F90E05E
:1005000008958FEF9FEF0895FC01918D828D9817CC
:1005100031F0828DE80FF11D858D90E008958FEF09
:100520009FEF0895FC01918D228D892F90E0805CD2
:100530009F4F821B91098F739927089584EE93E052
:100540000E94920221E0892B09F420E0822F089575
:1005500081E493E00E94920221E0892B09F420E0DB
:10056000822F0895FC01A48DA80FB92FB11DA35AA5
:10057000BF4F2C91848D90E001968F739927848FC3
:10058000A689B7892C93A089B1898C9183708064E6
:100590008C93938D848D981306C00288F389E02D87
:1005A00080818F7D80830895EF92FF920F931F9338
:1005B000CF93DF93EC0181E0888F9B8D8C8D981316
:1005C0001AC0E889F989808185FF15C09FB7F89422
:1005D000EE89FF896083E889F9898081837080646E
:1005E00080839FBF81E090E0DF91CF911F910F91B9
:1005F000FF90EF900895F62E0B8D10E00F5F1F4FC8
:100600000F731127E02E8C8D8E110CC00FB607FCD6
:10061000FACFE889F989808185FFF5CFCE010E9464
:10062000B202F1CFEB8DEC0FFD2FF11DE35AFF4F1E
:10063000F0829FB7F8940B8FEA89FB8980818062F2
:10064000CFCFCF93DF93EC01888D8823B9F0AA89AF
:10065000BB89E889F9898C9185FD03C0808186FD7D
:100660000DC00FB607FCF7CF8C9185FFF2CF8081CC
:1006700085FFEDCFCE010E94B202E9CFDF91CF918D
:10068000089580E090E0892B29F00E94A802811152
:100690000E94000080E090E0892B29F00E949E02D9
:1006A00081110E94000080E090E0892B49F080E0F9
:1006B00090E0892B29F00E94000081110E94000027
:1006C00080E090E0892B49F080E090E0892B29F0D0
:1006D0000E94000081110C94000008958150823125
:1006E00008F05AC0E82FF0E08827E658FC4F8F4FFB
:1006F0000C9416159A039E038C0392039603CC0365
:10070000A103A703AB03B103B503B903BF03C3033D
:10071000CC03C703CD03D103809180008F778093F2
:1007200080000895809180008F7DF9CF80918000B6
:10073000877FF5CF84B58F7784BD089584B58F7D8D
:10074000FBCF8091B0008F778093B00008958091A7
:10075000B0008F7DF9CF809190008F7780939000CB
:100760000895809190008F7DF9CF80919000877FD0
:10077000F5CF8091A0008F778093A000089580919D
:10078000A0008F7DF9CF8091A000877FF5CF809169
:1007900020018F77809320010895809120018F7D23
:1007A000F9CF80912001877FF5CF1F93CF93DF93FF
:1007B000282F30E0F901E854FD4F8491F901EC5BFA
:1007C000FC4FD491F901E250FD4FC491CC23A9F024
:1007D000162F81110E946E03EC2FF0E0EE0FFF1F29
:1007E000EC57FD4FA591B4918FB7F894EC9111118E
:1007F00008C0D095DE23DC938FBFDF91CF911F918E
:100800000895DE2BF8CFCF93DF9390E0FC01EC5BF3
:10081000FC4F249182509D4FFC0184918823D1F09C
:1008200090E0880F991FFC01E659FD4FA591B49106
:10083000FC01EC57FD4FC591D491623071F49FB724
:10084000F8943C91822F809583238C93E8812E2B02
:1008500028839FBFDF91CF9108958FB7F894EC91D3
:100860002E2B2C938FBFF6CF90917B00977F909388
:100870007B008653806480937C0080917A00806442
:1008800080937A0080917A0086FDFCCF8091780079
:100890009091790008953FB7F8948091E302909188
:1008A000E402A091E502B091E60226B5A89B05C03E
:1008B0002F3F19F00196A11DB11D3FBFBA2FA92FDF
:1008C000982F8827BC01CD01620F711D811D911DDC
:1008D00042E0660F771F881F991F4A95D1F7089548
:1008E0008F929F92AF92BF92CF92DF92EF92FF9240
:1008F0004B015C010E944B046B017C010E944B0484
:100900006C197D098E099F09683E73408105910528
:10091000A8F321E0821A9108A108B10888EEC80E58
:1009200083E0D81EE11CF11C81149104A104B104E0
:1009300029F7FF90EF90DF90CF90BF90AF909F90FE
:100940008F9008952FB7F8946091DF027091E002C4
:100950008091E1029091E2022FBF08950895CF9215
:10096000DF92EF92FF92CF93DF93DC011796CC9149
:100970001797D0E06111DC2F18962C91189730E072
:10098000220F331F22563D4F50E040E0F901859180
:100990009491FC01F080BA0190E080E0EF2DEC230F
:1009A000ED1310C04F5F5F4F1D96CD90DD90ED9021
:1009B000FC9050976C157D058E059F0538F36FEF01
:1009C0007FEFCB01DF91CF91FF90EF90DF90CF9041
:1009D00008958F929F92AF92BF92CF92DF92EF9243
:1009E000FF920F931F93CF93DF93CDB7DEB7C05421
:1009F000D1400FB6F894DEBF0FBECDBF8C010E9470
:100A0000A204F801C184D284E384F4849B01AC0184
:100A10002C193D094E095F0969017A0130EDC316B1
:100A200037E0D306E104F104A8F48189C05CDE4F0D
:100A30000FB6F894DEBF0FBECDBFDF91CF911F91EF
:100A40000F91FF90EF90DF90CF90BF90AF909F906D
:100A50008F900895618772878387948714821382A9
:100A600012821182108262E085810E94030461E09B
:100A700070E080E090E00E94700461E0F801858100
:100A80000E94030460E0F80185810E94D503F8010B
:100A900086818551823028F58BE291E10197F1F74B
:100AA00062E0F80185810E940304F801828990E0E8
:100AB0008230910538F0880F991F880F991F05978C
:100AC0000197F1F7F89460E0C8010E94AF046F3F0E
:100AD0007F4F8F4F9F4F61F4F801118A789480E027
:100AE000A5CF64E170E080E090E00E947004D8CF70
:100AF00061E0C8010E94AF046F3F7F4F8F4F9F4F4F
:100B000059F39E012F5F3F4F79015E013FEBA31A1E
:100B10003EEFB30A670160E0C8010E94AF04F6012E
:100B2000608371838283938361E0C8010E94AF0474
:100B3000F6016483758386839783F8E0CF0ED11C1A
:100B4000CA14DB0441F7789430E020E0F70180809C
:100B50009180A280B3804481558166817781FFEFC7
:100B60008F169F06AF06BF0631F04F3F8FEF580735
:100B70006807780719F4F801118AB1CFF90183E009
:100B8000F595E7958A95E1F7E00FF11F8081880FD1
:100B900084169506A606B706F0F080832F5F3F4FB8
:100BA000F8E0EF0EF11C2832310581F6F80144819E
:100BB00020818181280F3327331F8281280F311D27
:100BC0008381820F932F911D99274817190699F653
:100BD00081E0818B2BCF8160E0CFCF92DF92EF92CB
:100BE000FF921F93CF93DF93EC010E94E9048823C7
:100BF00039F08E818C3009F44DC038F48B30E1F03F
:100C000060E070E080EC9FE73DC085518230C0F726
:100C10001A81612F70E0762F662766277F778B8198
:100C2000682B90E080E00E9478132DEC3CEC4CECBB
:100C30005DE30E94B51348C06A8170E090E080E0F7
:100C40000E9478136B017C01CB81C7FF0AC0AC0105
:100C50009B0160E070E080E89FEB0E9473146B01E1
:100C60007C01CF706C2F70E090E080E00E947A13DE
:100C70002DEC3CEC4CEC5DE30E94B513A701960112
:100C80000E947414DF91CF911F91FF90EF90DF903D
:100C9000CF9008951A81612F70E090E080E00E946B
:100CA00078136B017C016B816F7070E090E080E0E5
:100CB0000E947A132DEC3CEC4CEC5DE30E94B513E2
:100CC000A70196010E94741417FFDCCF9058DACF69
:100CD000CF92DF92EF92FF92CF93DF93EC010E94CD
:100CE000E904882341F08E818B3028F08D3040F06C
:100CF0008551823030F160E070E080EC9FE71AC0EF
:100D0000698170E090E080E00E947A132DEC3CEC69
:100D10004CEC5DE30E94B5136B017C01688170E0CF
:100D200090E080E00E947A139B01AC01C701B601FC
:100D30000E947414DF91CF91FF90EF90DF90CF90DD
:100D400008956881798176276727762790E080E08B
:100D50000E9478132DEC3CEC4CEC5DE30E94B51343
:100D6000E9CF2091DC023091DD022817390771F4B8
:100D70009091DB028091DA02981741F0E091DB025A
:100D8000F0E0E656FD4F808190E008958FEF9FEFF1
:100D900008950895EF92FF920F931F93CF93DF93DF
:100DA000DC015C96ED90FC905D97E114F10479F420
:100DB00081E090E013969C938E93129790E080E0F0
:100DC000DF91CF911F910F91FF90EF900895519671
:100DD000ED91FC91529750968C915097982F909549
:100DE0000FB75E962C915E97122F127021FD6095C1
:100DF000F8942081112319F1282B2083E7012197F2
:100E0000F1F728E0462F50E0308160FF1AC0382B00
:100E10003083E7012197F1F7BA0175956795215065
:100E200089F7112381F08081892380830FBF5C962D
:100E30008D919C910197F1F781E090E0C1CF29233A
:100E4000DCCF3923E5CF9081892BEFCF2091DC02D5
:100E50003091DD022817390771F48091DA02209170
:100E6000DB0290E0805C9F4F821B910960E470E0A0
:100E70000E94E014089590E080E008952091DC0243
:100E80003091DD0228173907B9F49091DB02809187
:100E9000DA02981789F0E091DB02F0E0E656FD4FA8
:100EA00080812091DB0230E02F5F3F4F2F7333278B
:100EB0002093DB0290E008958FEF9FEF089590E07C
:100EC00080E00895FB0101900020E9F73197AF0120
:100ED000461B570BDC01ED91FC910280F381E02D64
:100EE00019948F929F92AF92BF92EF92FF920F93BD
:100EF0001F93CF93DF93CDB7DEB7A1970FB6F894CA
:100F0000DEBF0FBECDBF7C01FA01CB0119A222309A
:100F100008F42AE08E010F5D1F4F822E912CB12C18
:100F2000A12CBF01A50194010E94F414F901CA018A
:100F30006A300CF5605DD8016E938D01232B242B54
:100F4000252B79F790E080E0109721F0BD01C701D3
:100F50000E946207A1960FB6F894DEBF0FBECDBF08
:100F6000DF91CF911F910F91FF90EF90BF90AF90C5
:100F70009F908F900895695CDECF8F929F92AF9281
:100F8000BF92CF92DF92EF92FF920F931F93CF9376
:100F9000DF937C01EB016C0182E0C80ED11C47019C
:100FA000E5E08E0E911C10E000E0F60141916F012A
:100FB00050E070E060E02AE0CE010E9471075C0121
:100FC000E881F9810190F081E02D6EE2CE01199562
:100FD0008A0D9B1D080F191FC814D90431F7F7019A
:100FE000458150E070E060E02AE0CE010E94710788
:100FF000800F911FDF91CF911F910F91FF90EF9084
:10100000DF90CF90BF90AF909F908F900895CF9337
:10101000DF9362E972E081E493E00E946207EC01F1
:1010200064E972E081E493E00E9462078C0F9D1FE7
:10103000DF91CF910895BC0181E493E00C946207A5
:101040000F931F93CF93DF93EC01888199810097D1
:1010500059F02A813B812617370730F081E0DF9174
:10106000CF911F910F9108958B016F5F7F4F0E9469
:101070005716009759F0998388831B830A832C8124
:101080003D81232B59F7FC011082E8CF80E0E7CFA8
:10109000CF93DF93EC0188819981009711F00E9432
:1010A000CE15198218821D821C821B821A82DF9142
:1010B000CF910895CF92DF92EF92FF920F931F93FB
:1010C000CF93DF93CDB7DEB7A1970FB6F894DEBF0D
:1010D0000FBECDBF7C01CB01BA01F7011182108296
:1010E00013821282158214828E010F5F1F4F22E03D
:1010F00044E00E94D4106C01009771F0FC01019053
:101100000020E9F731978F01081B190BB801C701BF
:101110000E942008811112C0C7010E944808A196B0
:101120000FB6F894DEBF0FBECDBFDF91CF911F91F8
:101130000F91FF90EF90DF90CF900895F701158306
:101140000483B601808191810E944117E8CFFC01A0
:1011500080819181009711F00C94CE1508951F9213
:101160000F920FB60F9211240BB60F922F933F934D
:101170004F935F936F937F938F939F93AF93BF939F
:10118000EF93FF9384EE93E00E94B202FF91EF9100
:10119000BF91AF919F918F917F916F915F914F918F
:1011A0003F912F910F900BBE0F900FBE0F901F908D
:1011B00018951F920F920FB60F9211240BB60F9233
:1011C0002F938F939F93EF93FF93E091F403F0910C
:1011D000F5038081E091FA03F091FB0382FD1DC0CD
:1011E00090818091FD038F5F8F732091FE038217A2
:1011F00041F0E091FD03F0E0EC51FC4F958F8093BE
:10120000FD03FF91EF919F918F912F910F900BBE56
:101210000F900FBE0F901F9018958081F2CF1F92F4
:101220000F920FB60F9211240BB60F922F933F938C
:101230004F935F936F937F938F939F93AF93BF93DE
:10124000EF93FF9381E493E00E94B202FF91EF914C
:10125000BF91AF919F918F917F916F915F914F91CE
:101260003F912F910F900BBE0F900FBE0F901F90CC
:1012700018951F920F920FB60F9211240BB60F9272
:101280002F938F939F93EF93FF93E0915103F091EE
:1012900052038081E0915703F091580382FD1DC0F5
:1012A000908180915A038F5F8F7320915B03821727
:1012B00041F0E0915A03F0E0EF5BFC4F958F809393
:1012C0005A03FF91EF919F918F912F910F900BBE39
:1012D0000F900FBE0F901F9018958081F2CF1F9234
:1012E0000F920FB60F9211242F933F938F939F93DA
:1012F000AF93BF938091DF029091E002A091E10251
:10130000B091E2023091DE0223E0230F2D3758F531
:101310000196A11DB11D2093DE028093DF02909300
:10132000E002A093E102B093E2028091E302909187
:10133000E402A091E502B091E6020196A11DB11D63
:101340008093E3029093E402A093E502B093E60257
:10135000BF91AF919F918F913F912F910F900FBEB1
:101360000F901F90189526E8230F0296A11DB11D1E
:10137000D2CF1F920F920FB60F9211240BB60F927D
:101380002F933F934F935F936F937F938F939F938D
:10139000AF93BF93EF93FF93E0910E02F0910F0292
:1013A0001995FF91EF91BF91AF919F918F917F918F
:1013B0006F915F914F913F912F910F900BBE0F90C6
:1013C0000FBE0F901F9018951F920F920FB60F929D
:1013D00011240BB60F922F933F934F935F936F930C
:1013E0007F938F939F93AF93BF93EF93FF93E0917E
:1013F0000C02F0910D021995FF91EF91BF91AF9101
:101400009F918F917F916F915F914F913F912F911C
:101410000F900BBE0F900FBE0F901F9018951F924C
:101420000F920FB60F9211240BB60F922F933F938A
:101430004F935F936F937F938F939F93AF93BF93DC
:10144000EF93FF93E0910202F09103021995FF914F
:10145000EF91BF91AF919F918F917F916F915F912C
:101460004F913F912F910F900BBE0F900FBE0F9099
:101470001F9018951F920F920FB60F9211240BB662
:101480000F922F933F934F935F936F937F938F931D
:101490009F93AF93BF93EF93FF93E0910002F0917E
:1014A00001021995FF91EF91BF91AF919F918F919B
:1014B0007F916F915F914F913F912F910F900BBE54
:1014C0000F900FBE0F901F9018951F920F920FB69E
:1014D0000F9211240BB60F922F933F934F935F936C
:1014E0006F937F938F939F93AF93BF93EF93FF93EC
:1014F000E0910A02F0910B021995FF91EF91BF91D3
:10150000AF919F918F917F916F915F914F913F919B
:101510002F910F900BBE0F900FBE0F901F9018953C
:101520001F920F920FB60F9211240BB60F922F93AA
:101530003F934F935F936F937F938F939F93AF935B
:10154000BF93EF93FF93E0910802F0910902199580
:10155000FF91EF91BF91AF919F918F917F916F918B
:101560005F914F913F912F910F900BBE0F900FBE47
:101570000F901F9018951F920F920FB60F92112483
:101580000BB60F922F933F934F935F936F937F937D
:101590008F939F93AF93BF93EF93FF93E0910602D6
:1015A000F09107021995FF91EF91BF91AF919F9133
:1015B0008F917F916F915F914F913F912F910F90FC
:1015C0000BBE0F900FBE0F901F9018951F920F9299
:1015D0000FB60F9211240BB60F922F933F934F9398
:1015E0005F936F937F938F939F93AF93BF93EF938B
:1015F000FF93E0910402F09105021995FF91EF919C
:10160000BF91AF919F918F917F916F915F914F911A
:101610003F912F910F900BBE0F900FBE0F901F9018
:1016200018951F920F920FB60F9211240BB60F92BE
:101630002F933F934F935F936F937F938F939F93DA
:10164000AF93BF93EF93FF93E091DC02F091DD0243
:10165000309749F0A685B7858585968D91FF16C090
:101660009C918923B1F4FF91EF91BF91AF919F912C
:101670008F917F916F915F914F913F912F910F903B
:101680000BBE0F900FBE0F901F9018959C91892351
:1016900051F7A389B4899C918589809589238C937E
:1016A000868997890197F1F7608D718DA685B78539
:1016B000558538E020E0CB010197F1F7822F90E0CB
:1016C00095958795282F4C91452309F02068315036
:1016D00091F7868D81FD20958091DA0290E0019648
:1016E0008F7399273091DB02381799F0A091DA02B5
:1016F000B0E0A656BD4F2C938093DA02828D938D75
:101700000197F1F7A389B4898C919589892B8C93E2
:10171000AACF868D8160868FF1CFCF92DF92EF9234
:10172000FF920F931F93CF93DF93C4EED3E01B82FE
:101730001A8288EEC82E83E0D82EE12CF12CCC82C0
:10174000DD82EE82FF828EE792E0998388832DEC22
:1017500030E03D872C872CEC30E03F872E8728EC4B
:1017600030E0398B288B29EC30E03B8B2A8B2AEC3C
:1017700030E03D8B2C8B2EEC30E03F8B2E8B198E86
:101780001A8E1B8E1C8EE1E4F3E013821282C48257
:10179000D582E682F7829183808385EC90E09587FD
:1017A000848784EC90E09787868780EC90E0918B2B
:1017B000808B81EC90E0938B828B82EC90E0958B18
:1017C000848B86EC90E0978B868B118E128E138E15
:1017D000148EEEEDF3E080E992E091838083128233
:1017E000138214821582E6EDF4E0918380831282E5
:1017F000138214821582A3ECB4E08AE215968C93CE
:10180000159786E116968C931697EEE6F3E0E49131
:101810001796EC931797E8E2F3E0E4911896EC93AF
:10182000189740E85EE360E070E01D964D935D938D
:101830006D937C935097A0EBB4E09BE215969C933C
:10184000159716968C931697EFE6F3E0E4911796AA
:10185000EC931797E9E2F3E0E4911896EC9318976C
:101860001D964D935D936D937C935097ADE9B4E0D5
:101870009CE215969C93159716968C931697E0E725
:10188000F3E0E4911796EC931797EAE2F3E0E49122
:101890001896EC9318971D964D935D936D937C93DA
:1018A0005097AAE8B4E09DE215969C93159716967A
:1018B0008C931697E1E7F3E0E4911796EC93179772
:1018C000EBE2F3E0E4911896EC9318971D964D9394
:1018D0005D936D937C93509701E814E0F8011182B9
:1018E0001082C582D682E782F086CE010E94FA017C
:1018F000F801D383C2831482DF91CF911F910F919E
:10190000FF90EF90DF90CF900895CF93DF93CDB706
:10191000DEB768970FB6F894DEBF0FBECDBF7894E0
:1019200084B5826084BD84B5816084BD85B58260E4
:1019300085BD85B5816085BD80916E008160809395
:101940006E001092810080918100826080938100FE
:10195000809181008160809381008091800081600E
:10196000809380008091B10084608093B100809169
:10197000B00081608093B00080919100826080937C
:1019800091008091910081608093910080919000FE
:101990008160809390008091A10082608093A1007B
:1019A0008091A10081608093A1008091A00081605E
:1019B0008093A00080912101826080932101809119
:1019C00021018160809321018091200181608093B9
:1019D000200180917A00846080937A0080917A005F
:1019E000826080937A0080917A00816080937A008F
:1019F00080917A00806880937A001092C10081E41F
:101A000093E00E94FA0181E292E0909305028093B4
:101A10000402809169008C7F816080936900E89A5C
:101A200061E082E30E94030410E000E092E7E92E07
:101A300092E0F92E0430110584F4F701D080F2E031
:101A4000EF0EF11C61E08D2D0E94030460E08D2DEE
:101A50000E94D5030F5F1F4FEDCF16E161E0812F8C
:101A60000E94030460E0812F0E94D5031F5F16329D
:101A7000A9F761E0812F0E94030460E0812F0E949A
:101A8000D5031F5F1A32A9F7B6E16B2E712C88249B
:101A90008394912C8E010F5F1F4F81E3282E83E0EA
:101AA000382E0E94A204C0903D03D0903E03E090E7
:101AB0003F03F09040036C197D098E099F09693E30
:101AC000734081059105B8F00E94A20460933D0324
:101AD00070933E0380933F039093400380913B03B8
:101AE00090913C0301968630910509F4B9C2909318
:101AF0003C0380933B030E94A204C0903703D09024
:101B00003803E0903903F0903A036C197D098E098F
:101B10009F096B3F71058105910550F1A09010025E
:101B2000B0901102E0903303F090340380913503BC
:101B300090913603892B09F098C2F701EE0FFF1F31
:101B4000EE58FD4F61E080810E94D50361E08A2D4F
:101B50000E94D50390923603809235030E94A2041E
:101B600060933703709338038093390390933A035B
:101B70000E94A204C0902D03D0902E03E0902F036A
:101B8000F09030036C197D098E099F096137774108
:101B90008105910508F416C282E992E00E941B08B3
:101BA00083EC94E00E94ED05AB01BC01C8010E94EA
:101BB0005A08C8010E945802C8010E94A70887E974
:101BC00092E00E941B0880EB94E00E94ED05AB01BF
:101BD000BC01C8010E945A08C8010E945802C801ED
:101BE0000E94A70887E992E00E941B088DE994E013
:101BF0000E94ED05AB01BC01C8010E945A08C80152
:101C00000E945802C8010E94A70887E992E00E943A
:101C10001B088AE894E00E94ED05AB01BC01C801F5
:101C20000E945A08C8010E945802C8010E94A708D1
:101C30000E94070882E992E00E941B0883EC94E06E
:101C40000E946806AB01BC01C8010E945A08C80185
:101C50000E945802C8010E94A70887E992E00E94EA
:101C60001B0880EB94E00E946806AB01BC01C80130
:101C70000E945A08C8010E945802C8010E94A70881
:101C800087E992E00E941B088DE994E00E946806B3
:101C9000AB01BC01C8010E945A08C8010E94580249
:101CA000C8010E94A70887E992E00E941B088AE801
:101CB00094E00E946806AB01BC01C8010E945A086A
:101CC000C8010E945802C8010E94A7080E94070884
:101CD00082E992E00E941B084AE5C42E42E0D42E1D
:101CE000F12CE12CF60141915191619171916F01BB
:101CF000C8010E945A08C8010E945802C8010E94E7
:101D0000A708F5E0EF16F10421F087E992E00E94C0
:101D10001B082FEFE21AF20A36E0E316F10411F77E
:101D20000E94070882E992E00E941B0832E4C32E59
:101D300032E0D32EF12CE12CF601419151916191C9
:101D400071916F01C8010E945A08C8010E9458028F
:101D5000C8010E94A708F5E0EF16F10421F087E919
:101D600092E00E941B082FEFE21AF20A36E0E31617
:101D7000F10411F70E94070882E992E00E941B0813
:101D80002AE2C22E22E0D22EF12CE12CF601419162
:101D90005191619171916F01C8010E945A08C80167
:101DA0000E945802C8010E94A708F5E0EF16F1044E
:101DB00021F087E992E00E941B082FEFE21AF20A55
:101DC00036E0E316F10411F70E94070882E992E079
:101DD0000E941B0897EEE92E92E0F92E5701D12CB4
:101DE000C12CF50141915191619171915F01C8013F
:101DF0000E945A08C8010E945802C8010E94A70800
:101E000087E992E00E941B08FFEFCF1ADF0A24E067
:101E1000C216D10431F787E992E00E941B0830E135
:101E2000E30EF11C87E2E81683E0F806B9F60E949B
:101E3000070861E082E30E94030461E082E30E94FC
:101E4000D503EBEEF2E08491E7E7F3E0F490F101E3
:101E5000E49070E060E0EE2099F081110E946E0342
:101E6000EE2DF0E0EE0FFF1FE256FD4FA591B4916D
:101E70008C91F82291E080E009F490E0692F782FAE
:101E8000072E000C880B990B0E947A13609327038E
:101E9000709328038093290390932A0382E992E0A8
:101EA0000E941B0840912703509128036091290349
:101EB00070912A03C8010E945A08C8010E94580262
:101EC000C8010E94A7080E94070860912B03709127
:101ED0002C03072E000C880B990B0E947A13609339
:101EE0002703709328038093290390932A0382E9A0
:101EF00092E00E941B0840912703509128036091B3
:101F0000290370912A03C8010E945A08C8010E943F
:101F10005802C8010E94A7080E94070810922C03CB
:101F200010922B03F12CE12CD12CC12C88E30E94C0
:101F300034048E0D9F1DFFEFCF1ADF0AB6010E94F9
:101F4000E0147B016AE070E080E090E00E947004A1
:101F50002AE0C216D10451F782E992E00E941B08E0
:101F60001C8A1B8A1E8A1D8A188E1F8A4AE0B801A5
:101F7000C7010E94F210F80101900020E9F73197A3
:101F80007F01E01AF10AB701CE0143960E942008B2
:101F90008111DEC0CE0143960E944808CE014396CF
:101FA0000E945802CE0143960E94A7080E9407088B
:101FB0000E94A20460932D0370932E0380932F033D
:101FC000909330030E94A204C0902D03D0902E0362
:101FD000E0902F03F09030036C157D058E059F0572
:101FE00050F40E94A20460932D0370932E038093FB
:101FF0002F03909330030E94A204C0903703D09027
:102000003803E0903903F0903A036C157D058E0596
:102010009F0550F40E94A204609337037093380325
:102020008093390390933A030E94A204C0903D0329
:10203000D0903E03E0903F03F09040036C157D0587
:102040008E059F0550F40E94A20460933D03709397
:102050003E0380933F03909340030E94410321CDB0
:1020600010923C0310923B0346CDC0903103D090B8
:10207000320387E30E943404BC01990F880B990B4B
:102080000E947A1321E233E240EA5BE30E94B51337
:102090002701440C551C440C551C4C0C5D1C440C75
:1020A000551C440C551CF201E951FD4F2F0120E055
:1020B00030E040EC50E40E94B513F201608371837C
:1020C0008283938360E08A2D0E94D503FFEFCF1AAD
:1020D000DF0AD0923203C09231032FEFA21AB20A64
:1020E000B0921102A09210020E94A20460933703E2
:1020F000709338038093390390933A0334E0C31606
:10210000D104C1F4F701EE0FFF1FEE58FD4F60E060
:1021100080810E94D50310923203109231038FEF19
:10212000E81AF80AE4E0EE16F10449F0F0923403FC
:10213000E0923303109236031092350319CD1092BA
:102140003403109233037092110260921002F2CFA6
:10215000F88EEF8AB8018B899C890E9441171ECFA7
:10216000809185048823F9F0E0918104F091820444
:102170003097C9F08CE192E0918380838091DC02FA
:102180009091DD02E817F90759F4A389B4899C916D
:102190008589809589238C931092DD021092DC0250
:1021A000CF010C94CE150895EF920F931F93CF9308
:1021B000DF93E80134E047FD34E1042E000C550BB9
:1021C00057FF03C0519541955109E32E022F242F4B
:1021D000AE010E941711CE01DF91CF911F910F9197
:1021E000EF900895BB274A3031F4992322F4BDE2E1
:1021F000909581959F4F0C94FE10BB27FB015527AE
:10220000AA27880F991FAA1FA41710F0A41B839553
:102210005051B9F7A05DAA3308F0A95DA1930097CA
:1022200079F7B111B1931192CB010C9468138F928D
:102230009F92AF92BF92CF92DF92EF92FF920F9355
:102240001F93CF93DF9300D000D000D0CDB7DEB77F
:102250006A01F22EB02E102FFBE3AF2EA01608F469
:102260001BE31F5F012F27E0AE014F5F5F4F0E940E
:102270009012BC018981982F9970913009F44EC059
:102280009BE2E1FC04C09E2D9170E0FC49C05E2DF4
:102290005071E82FE87083FF55C084E0911101C0B0
:1022A00083E0EF2DE81B8F1508F0E0E0D6018E2FBC
:1022B00020E25523C9F1992329F0D6019C93C60148
:1022C00001966C0196012D5F3F4FE2FE33C08EE414
:1022D000D6018C9391E411969C93119712968C934E
:1022E000D9018E2F90E281112AC0E20FF32FF11D48
:1022F00010828EEF9FEF29960FB6F894DEBF0FBEC7
:10230000CDBFDF91CF911F910F91FF90EF90DF90A4
:10231000CF90BF90AF909F908F9008959DE2B7CFE0
:1023200090E2B5CF2D9381508111FCCFCE0ED11C00
:10233000E0E0C1CF8EE6D6018C9391E6CCCF9D93A1
:102340008150D1CF482F447082FF3DC084E091116D
:1023500001C083E08F1510F4EF2DE81BD6018E2FFE
:1023600020E2552309F1992329F0D6019C93C60157
:1023700001966C0196012D5F3F4FE2FE1BC089E480
:10238000D6018C938EE411968C93119786E4129665
:102390008C93D9018E2F90E2882309F4A6CF9D93C8
:1023A0008150FACF2D9381508111FCCFCE0ED11CDC
:1023B000E0E0D9CF89E6D6018C938EE611968C9316
:1023C000119786E6E4CF9B0177FF02C030E020E062
:1023D000A1E0B0E0911102C0B0E0A0E0F9013196B7
:1023E000AE0FBF1F8B2C912CBB2009F461C0540190
:1023F000EFEFAE1ABE0AAA0DBB1DFA161B0619F0A6
:1024000014F04F2D4A1B511188C0E3FC59C07601CE
:10241000A42FB0E2A1114FC0C40ED11C992309F41E
:102420005BC040E0D6011196F60190836D01552303
:1024300009F448C0012F060F9A81582F507184FF6C
:1024400003C0913309F4015010160CF047C0093055
:1024500008F008E0EEE2FE2E5B01A01AB10885014B
:102460009194819491082F3F320729F4D601FC9270
:10247000F60131966F016217730794F10217130783
:102480007CF5DB01A21BB30BAA24A394B12CAC0EE8
:10249000BD1EAA0DBB1D11968C9121503109D6018C
:1024A000119628153905F4F0F60180836D01DBCF14
:1024B000B12CA12CA0CFF701B1937F01A150AACFDD
:1024C0009111B0CFD601942F50E302C05D9391508B
:1024D0009111FCCFC40ED11C40E0ACCF01E0BACFCB
:1024E00080E3DBCF6217730731F4963388F49533BA
:1024F00011F4552369F0F6018083FD01842F90E2E9
:10250000811108C0A40FB11D1C9290E080E0F3CEB1
:1025100081E3F1CF91938150F3CF911183CF8ACF93
:10252000283008F027E03327DA01990F311D87FDA5
:10253000916000966105710539F432602E5F3D931C
:1025400030E32A95E1F708959F3F30F08038710518
:10255000610509F03C5F3C5F3D93913008F0806875
:10256000911DDF93CF931F930F93FF92EF92192F3B
:10257000987F9695E92F96959695E90FFF27E65354
:10258000FE4F99273327EE24FF24A701E70105908A
:102590000894079428F4360FE71EF81E491F511DB2
:1025A000660F771F881F991F0694A1F7059007945F
:1025B00028F4E70EF81E491F561FC11D770F881F0C
:1025C000991F661F0694A1F70590079428F4F80E4A
:1025D000491F561FC71FD11D880F991F661F771FE0
:1025E0000694A1F70590079420F4490F561FC71FC2
:1025F000D81F990F661F771F881F0694A9F784912B
:102600001095177041F0D695C79557954795F79453
:10261000E7941A95C1F7E0E7F1E0689415901591F9
:1026200035916591959105907FE27395E118F10AD6
:10263000430B560BC90BD009C0F7E10CF11E431F29
:10264000561FC91FD01D7EF4703311F48A95E6CF52
:10265000E894015030F0080F0AF40027021708F43C
:10266000202F2395022F7A3328F079E37D932A9542
:10267000E9F710C07D932A9589F60694979567959A
:10268000379517951794E118F10A430B560BC90BB0
:10269000D00998F023957E9173957A3308F070E312
:1026A0007C932013B8F77E9170617D9330F0839511
:1026B00071E37D9370E32A95E1F71124EF90FF9089
:1026C0000F911F91CF91DF91992787FD90950895E4
:1026D000DC01FC01672F71917723E1F7329704C089
:1026E0007C916D9370836291AE17BF07C8F3089514
:1026F000E89409C097FB3EF490958095709561959C
:102700007F4F8F4F9F4F9923A9F0F92F96E9BB2751
:102710009395F695879577956795B795F111F8CFCD
:10272000FAF4BB0F11F460FF1BC06F5F7F4F8F4F38
:102730009F4F16C0882311F096E911C0772321F02E
:102740009EE8872F762F05C0662371F096E8862FC6
:1027500070E060E02AF09A95660F771F881FDAF71D
:10276000880F9695879597F908950E94C8130C9441
:1027700039140E942B1438F00E94321420F0952353
:1027800011F00C9422140C94281411240C946D1440
:102790000E944A1470F3959FC1F3950F50E0551FA6
:1027A000629FF001729FBB27F00DB11D639FAA27A6
:1027B000F00DB11DAA1F649F6627B00DA11D661FF5
:1027C000829F2227B00DA11D621F739FB00DA11D16
:1027D000621F839FA00D611D221F749F3327A00DD0
:1027E000611D231F849F600D211D822F762F6A2F6C
:1027F00011249F5750409AF0F1F088234AF0EE0FD1
:10280000FF1FBB1F661F771F881F91505040A9F7FD
:102810009E3F510580F00C9422140C946D145F3F80
:10282000E4F3983ED4F3869577956795B795F79539
:10283000E7959F5FC1F7FE2B880F911D96958795B1
:1028400097F9089597F99F6780E870E060E0089530
:102850009FEF80EC089500240A94161617061806B8
:102860000906089500240A94121613061406050694
:102870000895092E0394000C11F4882352F0BB0F25
:1028800040F4BF2B11F460FF04C06F5F7F4F8F4F88
:102890009F4F089557FD9058440F551F59F05F3FC3
:1028A00071F04795880F97FB991F61F09F3F79F072
:1028B00087950895121613061406551FF2CF4695F4
:1028C000F1DF08C0161617061806991FF1CF869576
:1028D0007105610508940895E894BB27662777275A
:1028E000CB0197F908955058BB27AA270E948B1453
:1028F0000C9439140E942B1438F00E94321420F0EA
:1029000039F49F3F19F426F40C9428140EF4E09542
:10291000E7FB0C942214E92F0E944A1458F3BA17CB
:10292000620773078407950720F079F4A6F50C94E5
:102930006C140EF4E0950B2EBA2FA02D0B01B901EB
:1029400090010C01CA01A0011124FF27591B99F025
:10295000593F50F4503E68F11A16F040A22F232F31
:10296000342F4427585FF3CF469537952795A79581
:10297000F0405395C9F77EF41F16BA0B620B730B28
:10298000840BBAF09150A1F0FF0FBB1F661F771F99
:10299000881FC2F70EC0BA0F621F731F841F48F44E
:1029A000879577956795B795F7959E3F08F0B0CFD7
:1029B0009395880F08F09927EE0F979587950895BE
:1029C00097FB072E16F4009407D077FD09D00E94DC
:1029D0001E1507FC05D03EF4909581959F4F0895F4
:1029E000709561957F4F0895A1E21A2EAA1BBB1B1B
:1029F000FD010DC0AA1FBB1FEE1FFF1FA217B307CB
:102A0000E407F50720F0A21BB30BE40BF50B661FE0
:102A1000771F881F991F1A9469F7609570958095A4
:102A200090959B01AC01BD01CF010895EE0FFF1FF2
:102A3000881F8BBF0790F691E02D1994AA1BBB1B32
:102A400051E107C0AA1FBB1FA617B70710F0A61BAE
:102A5000B70B881F991F5A95A9F780959095BC01CF
:102A6000CD0108950F931F93CF93DF93823091058B
:102A700010F482E090E0E091DE04F091DF0430E0B9
:102A800020E0B0E0A0E0309799F42115310509F479
:102A90004AC0281B390B24303105D8F58A819B8127
:102AA0006115710589F1FB0193838283FE0111C0D9
:102AB000408151810281138148175907E0F048177E
:102AC000590799F4109761F012960C931297139688
:102AD0001C933296CF01DF91CF911F910F910895F2
:102AE0000093DE041093DF04F4CF2115310551F07B
:102AF0004217530738F0A901DB019A01BD01DF013C
:102B0000F801C1CFEF01F9CF9093DF048093DE0489
:102B1000CDCFFE01E20FF31F819391932250310933
:102B200039832883D7CF2091DC043091DD04232B17
:102B300041F420911402309115023093DD0420936A
:102B4000DC0420911202309113022115310541F469
:102B50002DB73EB74091160250911702241B350B3A
:102B6000E091DC04F091DD04E217F307A0F42E1BE2
:102B70003F0B2817390778F0AC014E5F5F4F2417E1
:102B8000350748F04E0F5F1F5093DD044093DC047F
:102B9000819391939FCFF0E0E0E09CCFCF93DF93C0
:102BA0000097E9F0FC01329713821282A091DE04B3
:102BB000B091DF04ED0130E020E01097A1F4208116
:102BC0003181820F931F2091DC043091DD0428179E
:102BD000390709F061C0F093DD04E093DC04DF9174
:102BE000CF910895EA01CE17DF07E8F54A815B81AE
:102BF0009E0141155105B1F7E901FB83EA83499133
:102C00005991C40FD51FEC17FD0761F480819181A4
:102C10000296840F951FE9019983888382819381AD
:102C20009B838A83F0E0E0E012968D919C9113974C
:102C30000097B9F52D913C911197CD010296820F25
:102C4000931F2091DC043091DD042817390739F6F1
:102C5000309751F51092DF041092DE04B093DD043A
:102C6000A093DC04BCCFD383C28340815181840F05
:102C7000951FC817D90761F44E5F5F4F888199810E
:102C8000480F591F518340838A819B81938382839C
:102C90002115310509F0B0CFF093DF04E093DE0495
:102CA0009ECFFD01DC01C0CF13821282D7CF4F929D
:102CB0005F926F927F928F929F92AF92BF92CF92CC
:102CC000DF92EF92FF920F931F93CF93DF938C01CC
:102CD000009799F4CB01DF91CF911F910F91FF9055
:102CE000EF90DF90CF90BF90AF909F908F907F90AC
:102CF0006F905F904F900C943215FC01E60FF71F18
:102D00009C0122503109E217F30708F4AEC0D90143
:102D1000CD91DC911197C617D70720F1C530D105A9
:102D200078F0CE0104978617970750F0C61BD70B93
:102D30002297C193D1936D937C93CF010E94CE15BE
:102D4000C801DF91CF911F910F91FF90EF90DF901D
:102D5000CF90BF90AF909F908F907F906F905F903B
:102D60004F9008955B01AC1ABD0A4C018C0E9D1E5C
:102D7000A091DE04B091DF04512C412CF12CE12C08
:102D8000109731F58091DC049091DD048815990548
:102D900009F05CC04616570608F058C08091120230
:102DA00090911302009741F48DB79EB7409116029F
:102DB00050911702841B950BE817F90708F055C0CE
:102DC000F093DD04E093DC04F90171836083B8CFF4
:102DD0008D919C91119712966C90129713967C90FE
:102DE0001397A815B90559F56C0142E0C40ED11C22
:102DF000CA14DB0420F1AC014A195B09DA0112960E
:102E0000159780F06282738251834083D9016D935C
:102E10007C93E114F10471F0D7011396FC93EE93C7
:102E200012978ECF22968C0F9D1FF901918380837C
:102E3000F301EFCFF093DF04E093DE0481CF481677
:102E4000590608F42C017D01D3019ACFCB010E94D1
:102E500032157C01009749F0AE01B8010E94381785
:102E6000C8010E94CE1587016BCF10E000E068CF4B
:102E7000FB01DC0102C001900D9241505040D8F797
:102E80000895FB01DC0101900D920020E1F7089507
:102E900011E0C6ECD1E000E006C0802FFE010E94E8
:102EA00016152196011DC73CD10780E00807A9F738
:042EB000F894FFCFC4
:102EB400AE04AE04AE04AE04AE04AE04AE04AE047E
:102EC40016000000E004800000000000CA062B0287
:102ED4005F07C90626073E07B10600000000000090
:102EE40000000000000000000000000000000000DE
:102EF40000000000000000000000000000000000CE
:102F040000000000000000000000000000000000BD
:102F140000000000000000000000000000000000AD
:102F24000000260027002800290000000000D40229
:102F34002B0261022103920270028402000000004D
:0A2F4400BD0740000D0A002C00003C
:00000001FF
